{
  "_format": "hh-sol-artifact-1",
  "contractName": "Party",
  "sourceName": "contracts/Party.sol",
  "abi": [
    {
      "inputs": [
        {
          "internalType": "uint256",
          "name": "_deposit",
          "type": "uint256"
        }
      ],
      "stateMutability": "nonpayable",
      "type": "constructor"
    },
    {
      "inputs": [],
      "name": "rsvp",
      "outputs": [],
      "stateMutability": "payable",
      "type": "function"
    }
  ],
  "bytecode": "0x608060405234801561001057600080fd5b506040516102ee3803806102ee8339818101604052810190610032919061007a565b80600081905550506100a7565b600080fd5b6000819050919050565b61005781610044565b811461006257600080fd5b50565b6000815190506100748161004e565b92915050565b6000602082840312156100905761008f61003f565b5b600061009e84828501610065565b91505092915050565b610238806100b66000396000f3fe60806040526004361061001e5760003560e01c8063228a592714610023575b600080fd5b61002b61002d565b005b600260003373ffffffffffffffffffffffffffffffffffffffff1673ffffffffffffffffffffffffffffffffffffffff16815260200190815260200160002060009054906101000a900460ff16156100ba576040517f08c379a00000000000000000000000000000000000000000000000000000000081526004016100b1906101e2565b60405180910390fd5b60005434146100c857600080fd5b6001339080600181540180825580915050600190039060005260206000200160009091909190916101000a81548173ffffffffffffffffffffffffffffffffffffffff021916908373ffffffffffffffffffffffffffffffffffffffff1602179055506001600260003373ffffffffffffffffffffffffffffffffffffffff1673ffffffffffffffffffffffffffffffffffffffff16815260200190815260200160002060006101000a81548160ff021916908315150217905550565b600082825260208201905092915050565b7f596f75277665207061696420616c726561647921000000000000000000000000600082015250565b60006101cc601483610185565b91506101d782610196565b602082019050919050565b600060208201905081810360008301526101fb816101bf565b905091905056fea2646970667358221220d4f9329e999e3b36181d580a2ae933c5bacd920d5a098e1d8ff2867d6ec485e864736f6c63430008110033",
  "linkReferences": {},
  "deployedLinkReferences": {}
}